:020000040000FA
:060000000A128A11FC2F18
:1002FA00F800F401F5017008F200F3017208F60043
:10030A007308F700781C8A298B2991297608F40743
:10031A000318F50A7708F50701300310F60DF70DF3
:10032A00FF3E031D92290310F80C7808031D9E292D
:10033A009F2987297508F1007408F0000800013028
:10034A008316031385008E309F00831203139F14B4
:10035A00B529023083120313D400D40BB22900004A
:10036A00831203139F18BA29BB29AE291E08D60087
:10037A00831603131E0883120313D5004030BD00F1
:10038A000030BC000030BB000030BA004330A3008C
:10039A004C30A200CC30A100CD30A0005508F000AE
:1003AA005608F1000030F11BFF30F200F300013073
:1003BA000A128A1104220A128A1173088312031379
:1003CA00A7007208A6007108A5007008A4000A1206
:1003DA008A11BE220A128A11831203132308C1004A
:1003EA002208C0002108BF002008BE000A128A1194
:1003FA009B240A128A11AA290A128A110028F800D3
:10040A0078080319092A0A2A1E2AF31F0D2A0E2A16
:10041A001E2A7009FA007109FB007209FC007309AF
:10042A00FD00FA0A0319FB0A0319FC0A0319FD0A5B
:10043A00262A7308FD007208FC007108FB00700888
:10044A00FA007308720471047004031D2D2A2E2AFF
:10045A00372A0030F3000030F2000030F10000309B
:10046A00F000BD2A9630F4007408F900492A0130D8
:10047A00F4007408F90701300310FD0CFC0CFB0CA6
:10048A00FA0CFF3E031D412AFE307D05031D4E2A4C
:10049A004F2A3C2A6B2A0130F4007408F90701300C
:1004AA00FA07003003180130FB0700300318013047
:1004BA00FC07003003180130FD0701300310FD0C62
:1004CA00FC0CFB0CFA0CFF3E031D632AFF307D0572
:1004DA00031D702A712A502A7D2A0130F90201303F
:1004EA00F4000310FA0DFB0DFC0DFD0DF40B762A3A
:1004FA00FC1B802A812A872A023079020318862A5D
:10050A00872A722A79188A2A8B2A932AFF30FA05AF
:10051A00FF30FB057F30FC05FF30FD050310F90CA9
:10052A007908F400F501F601F70118300310F40D0B
:10053A00F50DF60DF70DFF3E031D9B2A7408FA040C
:10054A007508FB047608FC047708FD04780803198B
:10055A00AF2AB02AB52AF31FB32AB42AB52AFD173F
:10056A007D08F3007C08F2007B08F1007A08F000AD
:10057A0008008312031327088039A8002808B1004D
:10058A002708A8002807A9002908B800A61FCE2A0C
:10059A00CF2AD02A381438080319D42AD52AE52AAA
:1005AA00380A031DD92ADA2AE22A0030A7000030C5
:1005BA00A6000030A5000030A400A617A701ED2A66
:1005CA000030A7000030A6000030A5000030A400CB
:1005DA0023088039A8002808B1062308A80028079C
:1005EA00A9002908B900A21FFB2AFC2AFD2A3914EE
:1005FA0039080319012B022B122B390A031D062B6A
:10060A00072B0F2B0030A3000030A2000030A100FE
:10061A000030A000A217A3011A2B0030A30000305B
:10062A00A2000030A1000030A00023082204210407
:10063A002004031D212B222B3B2B0030A700003066
:10064A00A6000030A5000030A4008030A6047F3048
:10065A00A7043108A8002808A7042708A300260829
:10066A00A2002508A1002408A0009A2C3808031D1E
:10067A003F2B402B492B0030A3000030A200003052
:10068A00A1000030A0009A2C3808A800A901290866
:10069A00AB0039082802AA00031CAB032A087F3ED4
:1006AA00B2002B080318013E003EB3002708B00031
:1006BA002608AF002508AE002408AD000030A700C8
:1006CA000030A6000030A5000030A4000030B700BA
:1006DA000030B6000030B5000030B400B901BF2BBD
:1006EA0039080319792B7A2B9A2B0130A8000310A9
:1006FA00AD0DAE0DAF0DB00DA80B7C2B0130A800CF
:10070A000310A40DA50DA60DA70DA80B852BB71FC9
:10071A008F2B902B912B24140130A8000310B40DB9
:10072A00B50DB60DB70DA80B932B23083002031D88
:10073A00A82B22082F02031DA82B21082E02031D15
:10074A00A82B20082D02031CAB2BAC2BBB2B371775
:10075A002008AD022108031C210FAE022208031C47
:10076A00220FAF022308031C230FB0020130A80096
:10077A002808B9071A303902031CC42BC52B752B5C
:10078A0030082F042E042D040319CC2BCD2BEC2B6F
:10079A003414EC2B0130A8000310A40DA50DA60DEE
:1007AA00A70DA80BD12BB71FDB2BDC2BDD2B2414B9
:1007BA000130A8000310B40DB50DB60DB70DA80B86
:1007CA00DF2BFF30B2070318B30AFF30B307A61FA7
:1007DA00EF2BF02BCF2BB901B71FF42BF52B112CD4
:1007EA00FF303405A800FF303505A900FF30360573
:1007FA00AA007F303705AB002B082A0429042804F5
:10080A000319082C092C0C2CB901B90A112C241C27
:10081A000F2C102C112C092C39080319152C162C05
:10082A00472C0130A407003003180130A507003017
:10083A0003180130A607003003180130A707271C48
:10084A00272C282C472C2408A8002508A9002608AC
:10085A00AA002708AB000130AC002B0DAB0CAA0C88
:10086A00A90CA80CAC0B322C2B08A7002A08A6004E
:10087A002908A5002808A4000130B2070318B30A02
:10088A000030B3073308803AFF0080307F02031D2F
:10089A00502CFF303202031C532C542C622CFF3094
:1008AA0083120313B2000030B3000030A7000030F7
:1008BA00A6000030A5000030A400831203133308F9
:1008CA00803AFF0080307F02031D6D2C0130320216
:1008DA000318702C712C7E2C83120313B201B301FE
:1008EA000030A7000030A6000030A5000030A400A8
:1008FA00B101831203133208A8002808B800381C73
:10090A00872C882C8A2CA6178E2C7F30A8002808C2
:10091A00A6053808A8000310280CA9002908A70072
:10092A003108A8002808A704322B080083120313F1
:10093A003D088039C2004208C7003D08C20042078C
:10094A00C3004308CD00BC1FAB2CAC2CAD2C4D14FE
:10095A004D080319B12CB22CC12C4D0A031DB62C1B
:10096A00B72CBF2C0030BD000030BC000030BB00EB
:10097A000030BA00BC17C92C0030BD000030BC00E2
:10098A000030BB000030BA0041088039C20042087A
:10099A00C7064108C2004207C3004308CC00C01F73
:1009AA00D72CD82CD92C4C144C080319DD2CDE2C4E
:1009BA00ED2C4C0A031DE22CE32CEB2C0030C10079
:1009CA000030C0000030BF000030BE00C017F52C58
:1009DA000030C1000030C0000030BF000030BE004F
:1009EA004C080319F92CFA2CFF2C4D08031DFE2C78
:1009FA00FF2C082D0030BD000030BC000030BB00C9
:100A0A000030BA00FB2F3A08C2004208F000400842
:100A1A000A128A117D210A128A117108831203139C
:100A2A00D3007008D2005208C200C301C401C50134
:100A3A004508CB004408CA004308C9004208C80058
:100A4A005308C200C301C401C5014508D1004408C6
:100A5A00D0004308CF004208CE003B08C20042083B
:100A6A00F0003F080A128A117D210A128A117108C0
:100A7A0083120313D3007008D2005208C200C301C4
:100A8A00C401C5014208C807430803110318013EFF
:100A9A000319502DC907440803110318013E03190D
:100AAA00572DCA07450803110318013E03195E2D85
:100ABA00CB075308C200C301C401C5014208CE07CF
:100ACA00430803110318013E03196C2DCF0744088C
:100ADA0003110318013E0319732DD00745080311AA
:100AEA000318013E03197A2DD1073C08C2004208B7
:100AFA00F0003E080A128A117D210A128A11710831
:100B0A0083120313D3007008D2005208C200C30133
:100B1A00C401C5014208C807430803110318013E6E
:100B2A000319982DC907440803110318013E031934
:100B3A009F2DCA07450803110318013E0319A62D64
:100B4A00CB075308C200C301C401C5014208CE073E
:100B5A00430803110318013E0319B42DCF074408B3
:100B6A0003110318013E0319BB2DD00745080311D1
:100B7A000318013E0319C22DD1070830C200031021
:100B8A00C80DC90DCA0DCB0DC20BC42D3B08C2003E
:100B9A004208F0003E080A128A117D210A128A11BF
:100BAA00710883120313D3007008D2005208C200DE
:100BBA005308C300C401C5014208C807430803110A
:100BCA000318013E0319EA2DC90744080311031843
:100BDA00013E0319F12DCA07450803110318013E06
:100BEA000319F82DCB073A08C2004208F0003F0863
:100BFA000A128A117D210A128A11710883120313BB
:100C0A00D3007008D2005208C2005308C300C401BE
:100C1A00C5014208C807430803110318013E031916
:100C2A00172EC907440803110318013E03191E2E83
:100C3A00CA07450803110318013E0319252ECB07DD
:100C4A000830C2000310C80DC90DCA0DCB0DC20B66
:100C5A00272E3A08C2004208F0003E080A128A11FA
:100C6A007D210A128A11710883120313D3007008B6
:100C7A00D2005208C2005308C300C401C501420889
:100C8A00C807430803110318013E03194D2EC9076B
:100C9A00440803110318013E0319542ECA074508D4
:100CAA0003110318013E03195B2ECB073B08C20050
:100CBA004208F00040080A128A117D210A128A119C
:100CCA00710883120313D3007008D2005208C200BD
:100CDA005308C300C401C5014208CE0743080311E3
:100CEA000318013E03197A2ECF074408031103188B
:100CFA00013E0319812ED007450803110318013E4E
:100D0A000319882ED1073C08C2004208F0003F08A8
:100D1A000A128A117D210A128A1171088312031399
:100D2A00D3007008D2005208C2005308C300C4019D
:100D3A00C5014208CE07430803110318013E0319EF
:100D4A00A72ECF07440803110318013E0319AE2E3C
:100D5A00D007450803110318013E0319B52ED10720
:100D6A003C08C2004208F00040080A128A117D219C
:100D7A000A128A11710883120313D3007008D20071
:100D8A005208C2005308C300C401C5010830031049
:100D9A00C20DC30DC40DC50DFF3E031DCC2E420866
:100DAA00CE07430803110318013E0319DD2ECF07AE
:100DBA00440803110318013E0319E42ED00745081D
:100DCA0003110318013E0319EB2ED1074808C2008C
:100DDA004908C3004A08C4004B08C500183003106C
:100DEA00C50CC40CC30CC20CFF3E031DF42E4208F2
:100DFA00CE07430803110318013E0319052FCF0735
:100E0A00440803110318013E03190C2FD0074508A3
:100E1A0003110318013E0319132FD1070830C2002A
:100E2A000310C80DC90DCA0DCB0DC20B152F4D08E5
:100E3A004C07C200C301C30D4208823ED2004308D8
:100E4A000318013EFF3ED300472F0130C2000310B2
:100E5A00CE0DCF0DD00DD10DC20B2C2FCB1F362F9F
:100E6A00372F382F4E140130C2000310C80DC90D98
:100E7A00CA0DCB0DC20B3A2FFF30D2070318D30A83
:100E8A00FF30D307D01F4A2F4B2F2A2FCC01CB1F5D
:100E9A004F2F502F6C2FFF304805C200FF304905F5
:100EAA00C300FF304A05C4007F304B05C500450822
:100EBA004404430442040319632F642F672FCC01AF
:100ECA00CC0A6C2F4E1C6A2F6B2F6C2F642F4C0888
:100EDA000319702F712FA22F0130CE07003003188B
:100EEA000130CF07003003180130D0070030031853
:100EFA000130D107511C822F832FA22F4E08C20026
:100F0A004F08C3005008C4005108C5000130C6008C
:100F1A00450DC50CC40CC30CC20CC60B8D2F45085D
:100F2A00D1004408D0004308CF004208CE00013067
:100F3A00D2070318D30A0030D3075308803AFF00B8
:100F4A0080307F02031DAB2FFF305202031CAE2FED
:100F5A00AF2FBA2F7F3083120313D1008030D00015
:100F6A000030CF000030CE00EF2F83120313530856
:100F7A00803AFF0080307F02031DC52F01305202E4
:100F8A000318C82FC92FD52F003083120313D1009D
:100F9A000030D0000030CF000030CE00C701EF2F64
:100FAA00831203135208C2004208CD00FF30CE0557
:100FBA00FF30CF057F30D0050030D1054D1CE62F1C
:100FCA00E72FE82FD0174D08C2000310420CC300C8
:100FDA004308D1004708C2004208D1045108BD00A5
:100FEA005008BC004F08BB004E08BA000800830135
:060FFA000A128A11A4296D
:04400E00F43FFF3F3D
:00000001FF
